:030000000201F901
:0C01F900787FE4F6D8FD758130020240EA
:10045D003F065B4F666D7D077F6F777C395E7971E7
:10046D0000989680000F4240000186A000002710E2
:10047D00000003E8000000640000000A0102040807
:04048D00102040807B
:0F04F500010A000114020109020113300108007D
:0704AE007F147E001203A27F
:1004B500E4FF20A0027F3120A1027F3220A2027F2B
:0104C5003303
:0104C6002213
:03000B0002050FDC
:03050F00050A32A8
:090505007F08780BE4F608DFFC26
:01050E0022CA
:0203E2008F1C6E
:1003E400531C07C37407951CF51CBD2D047E408067
:1003F40017AF05120491AE07EEC394105008EE90A7
:10040400045D93FE8002E4FEE51CB5090543068005
:0C041400800353067F740B251CF8A6061D
:0104200022B9
:040421008F198D1A88
:10042500AF1A051AA807E6F51B602CE51BB4301CAE
:10043500051BE51B64306014E5092401FFE433FE68
:10044500E5196F7001EE6004051980D4AF1905191F
:07045500AD1B1203E280C998
:01045C00227D
:0E0285007F2185181D85171C85161B85151AEF
:020293008F19C1
:10029500E4F51EE51E25E025E0246DF582E4340431
:1002A500F58312012BAF1DAE1CAD1BAC1A120099C4
:1002B5008F1FE51F2430AE190519A806F6E51E2582
:1002C500E025E0246DF582E43404F58312012BAFBB
:1002D5001FE4FCFDFE12000EA804A905AA06C3E54D
:1002E5001D9FF51DE51C9AF51CE51B99F51BE51AE7
:1002F50098F51A051EE51EB40799E51D2430AE19BB
:090305000519A806F6A819E4F692
:01030E0022CC
:1004E000120505C2AF758915758DFA758B24D28EEC
:0504F000D2A9D2AF22E9
:1003A200758DFA758B24D28E308FFDC28EC28F75F9
:1003B2008DFA758B24D28E90780074FFF0740B2521
:1003C20008F8E6F4A3F0E50890048993F490780025
:0603D200F00508530807C6
:0A03D800EF1F70011E144E70C122C9
:060003007589150204E0FE
:10035A00E51324CE601A1460292402703AC280D2AE
:10036A0081D282D28CE4F58CF58A7FE87E038022E2
:10037A00D280C281D282D28CE4F58CF58A7F64FE67
:10038A008010D280D281C282D28CE4F58CF58A7F29
:08039A000AFE1203A2C28C222C
:1004C700E51324CE600B14600C2402700B7509032E
:0904D700227509022275090122B7
:10013B00E4F51CF51BF51AF519F520F51FF51EF561
:10014B001DAF0AFCFDFEFBFA7901F812000EA804A4
:10015B00A905AA06AB07AF8CEFFEAD8A7C00E42D98
:10016B00FFEC3EFEE4FDEB2FFFEA3EFEED39FDEC2E
:10017B00388F1C8E1B8D1AF519E47BE87A03F9F87E
:10018B00AC19120099E47B04FAF9F812000EA804DA
:10019B00A905AA06C3E51C9FF51CE51B9AF51BE5F3
:1001AB001A99F51AE51998F519E51324CE601A1466
:1001BB00601224027013851C20851B1F851A1E8557
:1001CB00191D801EE47F648003E47F0AFEFDFCABF7
:1001DB001CAA1BA91AA81912000E8F208E1F8D1E88
:0D01EB008C1DE4F50AAF20AE1FAD1EAC1D4B
:0101F80022E4
:10030F00E47518B3751715F516F5151200031202DB
:10031F00857D217F081204217FC87E001203A2125F
:10032F0004AE8F13E51360F712035A12013B8F18B7
:10033F008E178D168C151204C71202857D217F082A
:0B034F001204211204AEEF70FA80D4FB
:1002050002030FE493A3F8E493A34003F68001F2FD
:1002150008DFF48029E493A3F85407240CC8C333FA
:10022500C4540F4420C8834004F456800146F6DFC9
:10023500E4800B01020408102040809004F5E47E60
:10024500019360BCA3FF543F30E509541FFEE493BE
:10025500A360010ECF54C025E060A840B8E493A385
:10026500FAE493A3F8E493A3C8C582C8CAC583CAB0
:10027500F0A3C8C582C8CAC583CADFE9DEE780BE68
:0105040000F6
:10000E00E88FF0A4CC8BF0A42CFCE98EF0A42CFC91
:10001E008AF0EDA42CFCEA8EF0A4CDA8F08BF0A40F
:10002E002DCC3825F0FDE98FF0A42CCD35F0FCEB6E
:10003E008EF0A4FEA9F0EB8FF0A4CFC5F02ECD3933
:0F004E00FEE43CFCEAA42DCE35F0FDE43CFC22A0
:10005D0075F008758200EF2FFFEE33FECD33CDCC5A
:10006D0033CCC58233C5829BED9AEC99E5829840DD
:10007D000CF582EE9BFEED9AFDEC99FC0FD5F0D6BA
:10008D00E4CEFBE4CDFAE4CCF9A88222B800C1B9E4
:10009D000059BA002DEC8BF084CFCECDFCE5F0CB22
:1000AD00F97818EF2FFFEE33FEED33FDEC33FCEB5B
:1000BD0033FB10D703994004EB99FB0FD8E5E4F916
:1000CD00FA227818EF2FFFEE33FEED33FDEC33FC03
:1000DD00C933C910D7059BE99A4007EC9BFCE99AF7
:1000ED00F90FD8E0E4C9FAE4CCFB2275F010EF2F3C
:1000FD00FFEE33FEED33FDCC33CCC833C810D7073C
:10010D009BEC9AE899400AED9BFDEC9AFCE899F876
:0E011D000FD5F0DAE4CDFBE4CCFAE4C8F92209
:10012B00E493F8740193F9740293FA740393FB222A
:10049100EF7E0024D0B40A00401124F9B4100040CA
:0D04A1000A24E0B41000400374FFFEFF22A7
:00000001FF
