:0300000002013BBF
:0C013B00787FE4F6D8FD75812F02018268
:100413003F065B4F666D7D077F6F777C395E797131
:1004230000989680000F4240000186A0000027102C
:10043300000003E8000000640000000A0102040851
:0404430010204080C5
:0C04AB00010A0001140201090001080010
:070464007F0A7E0012035C19
:10046B00E4FF20A0027F3120A1027F3220A2027F75
:01047B00334D
:01047C00225D
:03000B000204C22A
:0304C200050A32F6
:0904B8007F08780BE4F608DFFC74
:0104C1002218
:02039C008F1CB4
:10039E00531C07C37407951CF51CBD2D047E4080AD
:1003AE0017AF05120447AE07EEC394105008EE9037
:1003BE00041393FE8002E4FEE51CB5090543068096
:0C03CE00800353067F740B251CF8A60664
:0103DA002200
:0403DB008F198D1ACF
:1003DF00AF1A051AA807E6F51B6028E51BB43018FD
:1003EF00051BE51B64306010051BE51B64306008BE
:1003FF00AF1905197D2B8006AF190519AD1B120317
:03040F009C80CD01
:0104120022C7
:0E01C7007F2085181D85171C85161B85151AAF
:0201D5008F1980
:1001D700E4F51EE51E25E025E02423F582E434043A
:1001E700F58312012BAF1DAE1CAD1BAC1A12009983
:1001F7008F1FE51F2430AE190519A806F6E51E2541
:10020700E025E02423F582E43404F58312012BAFC3
:100217001FE4FCFDFE12000EA804A905AA06C3E50B
:100227001D9FF51DE51C9AF51CE51B99F51BE51AA5
:1002370098F51A051EE51EB40799E51D2430AE1979
:090247000519A806F6A819E4F651
:01025000228B
:100496001204B8C2AF758915758DFA758B24D28E84
:0504A600D2A9D2AF2233
:10035C00758DFA758B24D28E308FFDC28EC28F753F
:10036C008DFA758B24D28E90780074FFF0740B2567
:10037C0008F8E6F4A3F0E50890043F93F4907800B5
:06038C00F005085308070C
:0A039200EF1F70011E144E70C1220F
:0600030075891502049648
:10031500EF24CE601A1460292402703AC280D2817B
:10032500D282D28CE4F58CF58A7FE87E038022D2D6
:1003350080C281D282D28CE4F58CF58A7F64FE80FE
:1003450010D280D281C282D28CE4F58CF58A7F0AE4
:07035500FE12035CC28C22C2
:10047D00E51324CE600B14600C2402700B75090378
:09048D0022750902227509012201
:10025100AF0AE4FCFDFEFBFA7901F812000EA804D6
:10026100A905AA06AB07AF8CEFFEAD8A7C00E42D91
:10027100FFEC3EFEE4FDEB2FFFEA3EFEED39FDEC27
:10028100388F1C8E1B8D1AF519E47BE87A03F9F877
:10029100AC19120099E47B04FAF9F812000EA804D3
:1002A100A905AA06C3E51C9FF51CE51B9AF51BE5EC
:1002B1001A99F51AE51998F519AF1CAE1BAD1AFC80
:0602C10012047DE4F50AC1
:0102C7002214
:1002C800E47518B3751715F516F515120003120124
:1002D800C77D207F081203DB7FC87E0012035C12F3
:1002E80004648F13E51360F7AF131203151202515C
:1002F8008F188E178D168C1512047D1201C77D205C
:0D0308007F081203DB120464EF70FA80D24C
:100147000202C8E493A3F8E493A34003F68001F204
:1001570008DFF48029E493A3F85407240CC8C333B9
:10016700C4540F4420C8834004F456800146F6DF88
:10017700E4800B01020408102040809004ABE47E69
:10018700019360BCA3FF543F30E509541FFEE4937D
:10019700A360010ECF54C025E060A840B8E493A344
:1001A700FAE493A3F8E493A3C8C582C8CAC583CA6F
:1001B700F0A3C8C582C8CAC583CADFE9DEE780BE27
:0104B7000044
:10000E00E88FF0A4CC8BF0A42CFCE98EF0A42CFC91
:10001E008AF0EDA42CFCEA8EF0A4CDA8F08BF0A40F
:10002E002DCC3825F0FDE98FF0A42CCD35F0FCEB6E
:10003E008EF0A4FEA9F0EB8FF0A4CFC5F02ECD3933
:0F004E00FEE43CFCEAA42DCE35F0FDE43CFC22A0
:10005D0075F008758200EF2FFFEE33FECD33CDCC5A
:10006D0033CCC58233C5829BED9AEC99E5829840DD
:10007D000CF582EE9BFEED9AFDEC99FC0FD5F0D6BA
:10008D00E4CEFBE4CDFAE4CCF9A88222B800C1B9E4
:10009D000059BA002DEC8BF084CFCECDFCE5F0CB22
:1000AD00F97818EF2FFFEE33FEED33FDEC33FCEB5B
:1000BD0033FB10D703994004EB99FB0FD8E5E4F916
:1000CD00FA227818EF2FFFEE33FEED33FDEC33FC03
:1000DD00C933C910D7059BE99A4007EC9BFCE99AF7
:1000ED00F90FD8E0E4C9FAE4CCFB2275F010EF2F3C
:1000FD00FFEE33FEED33FDCC33CCC833C810D7073C
:10010D009BEC9AE899400AED9BFDEC9AFCE899F876
:0E011D000FD5F0DAE4CDFBE4CCFAE4C8F92209
:10012B00E493F8740193F9740293FA740393FB222A
:10044700EF7E0024D0B40A00401124F9B410004014
:0D0457000A24E0B41000400374FFFEFF22F1
:00000001FF
